:020000040800F2
:1000000000000220350C0008C90B0008CB0B0008CB
:10001000CD0B0008CF0B0008D10B0008000000003A
:10002000000000000000000000000000211D00088A
:10003000D30B000800000000B11D00086B19000878
:10004000850C0008850C0008850C0008850C00084C
:10005000850C0008850C0008850C0008850C00083C
:10006000850C0008850C0008850C0008850C00082C
:10007000850C0008850C0008850C0008850C00081C
:10008000850C0008850C0008850C000800000000A5
:10009000000000000000000000000000850C0008C7
:1000A000850C0008D50B0008850C0008850C00089D
:1000B000850C0008850C0008850C0008850C0008DC
:1000C000850C0008850C0008850C0008850C0008CC
:1000D000850C0008850C0008850C00080000000055
:1000E000850C0008850C0008850C00080000000045
:1000F000000000000000000000000000850C000867
:1001000000000000850C0008850C0008850C000824
:1001100000000000000000000000000000000000DF
:10012000850C0008850C0008850C0008850C00086B
:10013000850C000800000000000000000000000026
:10014000000000000000000000000000850C000816
:10015000850C0008850C0008850C0008850C00083B
:10016000850C0008850C000800000000000000005D
:10017000000000000000000000000000000000007F
:1001800000000000850C00080000000000000000D6
:08019000850C0008850C000835
:1001A00010B5054C237833B9044B13B10448AFF3B1
:1001B00000800123237010BD7800002000000000A3
:1001C000C83F000808B5034B1BB103490348AFF310
:1001D000008008BD000000007C000020C83F00082F
:1001E00053B94AB9002908BF00281CBF4FF0FF319E
:1001F0004FF0FF3000F074B9ADF1080C6DE904CE9A
:1002000000F006F8DDF804E0DDE9022304B07047F1
:100210002DE9F047089D04468E46002B4DD18A42B9
:10022000944669D9B2FA82F252B101FA02F3C2F1EC
:10023000200120FA01F10CFA02FC41EA030E94407D
:100240004FEA1C48210CBEFBF8F61FFA8CF708FB9E
:1002500016E341EA034306FB07F199420AD91CEB76
:10026000030306F1FF3080F01F81994240F21C81A8
:10027000023E63445B1AA4B2B3FBF8F008FB1033F0
:1002800044EA034400FB07F7A7420AD91CEB040425
:1002900000F1FF3380F00A81A74240F207816444F5
:1002A000023840EA0640E41B00261DB1D44000237A
:1002B000C5E900433146BDE8F0878B4209D9002DDE
:1002C00000F0EF800026C5E9000130463146BDE868
:1002D000F087B3FA83F6002E4AD18B4202D38242D2
:1002E00000F2F980841A61EB030301209E46002D81
:1002F000E0D0C5E9004EDDE702B9FFDEB2FA82F2D6
:10030000002A40F09280A1EB0C014FEA1C471FFA33
:100310008CFE0126200CB1FBF7F307FB131140EA1A
:1003200001410EFB03F0884208D91CEB010103F1E7
:10033000FF3802D2884200F2CB804346091AA4B2A9
:10034000B1FBF7F007FB101144EA01440EFB00FE7D
:10035000A64508D91CEB040400F1FF3102D2A645E2
:1003600000F2BB800846A4EB0E0440EA03409CE781
:10037000C6F12007B34022FA07FC4CEA030C20FA2E
:1003800007F401FA06F31C43F9404FEA1C4900FA4E
:1003900006F3B1FBF9F8200C1FFA8CFE09FB1811CB
:1003A00040EA014108FB0EF0884202FA06F20BD93E
:1003B0001CEB010108F1FF3A80F08880884240F28E
:1003C0008580A8F102086144091AA4B2B1FBF9F0D2
:1003D00009FB101144EA014100FB0EFE8E4508D9CD
:1003E0001CEB010100F1FF346CD28E456AD9023852
:1003F000614440EA0840A0FB0294A1EB0E01A14237
:10040000C846A64656D353D05DB1B3EB080261EBA4
:100410000E0101FA07F722FA06F3F1401F43C5E97E
:10042000007100263146BDE8F087C2F12003D840B4
:100430000CFA02FC21FA03F3914001434FEA1C47F6
:100440001FFA8CFEB3FBF7F007FB10360B0C43EAE8
:10045000064300FB0EF69E4204FA02F408D91CEB98
:10046000030300F1FF382FD29E422DD90238634496
:100470009B1B89B2B3FBF7F607FB163341EA034136
:1004800006FB0EF38B4208D91CEB010106F1FF3885
:1004900016D28B4214D9023E6144C91A46EA00467C
:1004A00038E72E46284605E70646E3E61846F8E60E
:1004B0004B45A9D2B9EB020864EB0C0E0138A3E757
:1004C0004646EAE7204694E74046D1E7D0467BE738
:1004D000023B614432E7304609E76444023842E7B0
:1004E000704700BF034613F8012B002AFBD1181AEE
:1004F000013870470000000000000000000000000C
:1005000001F0FF01102A2BDB10F0070F08D010F8C4
:10051000013B013A8B422DD010F0070F42B3F6D1C8
:10052000F0B441EA012141EA014122F007047FF0E1
:1005300000070023F0E80256083C85EA010586EA38
:10054000010685FA47F5A3FA87F586FA47F6A5FA74
:1005500087F68EB9EED1F0BC01F0FF0102F0070280
:1005600032B110F8013B013A83EA010313B1F8D12B
:100570000020704701387047002D06BF354603380C
:10058000073815F0010F07D1013015F4807F02BF45
:10059000013015F4C03F0130F0BC0138704700BF96
:1005A0002DE9F0414FF0E0280646D8F8145000F04D
:1005B00091FB4FF47A77D8F818300135B5FBF7F591
:1005C000B3FBF5F3A3F57A7307FB103400F082FB5D
:1005D000D8F81830B3FBF5F3C3F57A73234407FB5F
:1005E0000033B342F2D3BDE8F081000038B5174DB7
:1005F000044600F008024FF48071154800F08AFCB0
:1006000004F0040228464FF4806100F083FC04F0FB
:1006100002022846102100F07DFC04F00102284669
:10062000202100F077FC01220821284600F072FC0E
:100630003220FFF7B5FF28460022082100F06AFCAF
:10064000BDE838403220FFF7ABBF00BF00040240D6
:100650000000024010B5002204464FF480610648B5
:1006600000F058FC2009FFF7C1FF04F00F00BDE8BF
:100670001040FFF7BBBF00BF0000024082B0094B33
:1006800001930229084B28BF0021D870197102ABD1
:10069000194411F8043C184460F07F00C0B202B065
:1006A000FFF7D8BF004014549400002010B5012279
:1006B00004464FF48061064800F02CFC2009FFF747
:1006C00095FF04F00F00BDE81040FFF78FBF00BF9B
:1006D0000000024008B50120FFF7BCFFBDE808405C
:1006E000052001F0C4B9000070B51546FFF7C6FF3C
:1006F000134C013D002615F8013F03B970BDE378A6
:100700000F2B07D92179E6700131C9B20020217180
:10071000FFF7B4FF28780A2807D12179E078013162
:10072000C9B22171FFF7AAFFE5E70D2802D12179AF
:100730000020F7E7FFF7BAFFE3780133E370DAE769
:1007400094000020044B187840F0040240F00C00A4
:100750001A70FFF77FBF00BF9400002010B586B06D
:100760000123029302210023CDE9033133484FF4E2
:10077000806401A9019400F005FB0823304801932F
:1007800001A900F0FFFA4FF400732C48019301A96E
:1007900000F0F8FA20232A48019301A900F0F2FAA8
:1007A00010232748019301A900F0ECFA2448019492
:1007B00001A900F0E7FA4FF480732048019301A9E2
:1007C00000F0E0FA00F086FAC72832D91D4C002369
:1007D000E3702371032008236370FFF707FF0520F0
:1007E00001F045F90320FFF701FF052001F03FF973
:1007F0000320FFF7FBFE052001F039F90220FFF787
:10080000F5FE052001F033F9607840F02000FFF795
:1008100021FF04232370FFF795FFFFF75BFF0223FF
:100820000620A370FFF716FF052001F020F906B09F
:1008300010BD012001F01BF9C4E700BF0000024019
:10084000000402409400002000B58FB0FFF786FF3F
:10085000104D114C0023ADF80230FFF73BFF0A2387
:100860000DF102012868002201F048F9BDF80220CC
:10087000013292B2214601A8ADF8022002F088FFB1
:100880000021084601AAFFF72FFF4FF47A7001F00C
:10089000EEF8E2E7FC000020E03F000800B58FB072
:1008A0000023104E104D114CADF802300A230DF10B
:1008B00002013068002201F051F9BDF802202946FA
:1008C00001A802F065FF01A8FFF70CFE4FF0FF330F
:1008D00082B201A9204600F0F3FF4FF47A7001F0D4
:1008E000C6F8E3E7FC000020EA3F00088C07002080
:1008F00000B595B02C22002109A802F0D7FE1422E1
:10090000002103A802F0D2FE0023194A0193116CC2
:1009100041F080511164126C02F080520192019AF0
:10092000144A0293116841F44041116012680E9319
:1009300002F440420292029A0222089201201022FE
:10094000CDE90B0208A800F0EBFA014608B172B637
:10095000FEE70F23CDE90330CDE90500079003A89A
:1009600000F0BCFC08B172B6FEE715B05DF804FB00
:10097000003802400070004000B589B000F084F9F2
:1009800000BFFFF7B5FF1422002103A802F08EFE7E
:100990000024324B01941A6B314842F001021A6371
:1009A0001A6B02F001020192019A02941A6B42F052
:1009B00002021A631B6B03F00203224602934FF4F8
:1009C0008761029B00F0A6FA224626484FF4E061B8
:1009D00000F0A0FA01264FF487632148022503A9FD
:1009E000CDE90336CDE9055500F0CCF94FF4E063CD
:1009F0001C4803A9CDE90336CDE9055500F0C2F93D
:100A000019481A4A04614FF4E133C0E900230C236A
:100A1000C0E90244C0E90534C46100F023FF044684
:100A200008B172B6FEE700F0ADFF114A2946082072
:100A300001F029F80F4B104A186021460F4800F0CA
:100A4000CDFF0F4B0F4A186021460F4800F0C6FF3C
:100A50000E4B186000F0A8FFFEE700BF0038024010
:100A600000040240000002408C07002000440040C7
:100A700010400008FC0000204C4000084908000815
:100A8000580E0020284000089D0800088807002014
:100A90000268034B9A4201D100F010B9704700BFC1
:100AA0000044014082B00E4B00220092596C41F488
:100AB00080415964596C01F4804100910099019280
:100AC000196C41F0805119641B6C03F08053019341
:100AD000019B0F216FF0010002B000F013B900BFBD
:100AE0000038024010B5044688B01422002103A843
:100AF00002F0DCFD2268144B9A4222D103F5FA334E
:100B0000002101911A6C114842F400321A641A6CE7
:100B100002F400320192019A02911A6B42F0010232
:100B20001A631B6B03F001030293029B0C22022346
:100B30000321CDE903230723CDE9061303A900F020
:100B400021F908B010BD00BF004400400000024081
:100B500030B5014689B00022192000F0D3F81920E1
:100B600000F002F90025144B02955A6C134C42F424
:100B700000325A645B6C03F40033029301A903A8AA
:100B8000029B00F067FC00F055FC0D4B236040F227
:100B9000E733E3600B4BB0FBF3F0013860602046B5
:100BA0002561A56000F09CFD20B9204600F072FC94
:100BB00009B030BD0120FBE7003802405C0E002088
:100BC0000044014040420F00FEE7FEE7FEE7FEE77B
:100BD000FEE77047014800F093BC00BF5C0E0020A8
:100BE0000B4A116810B5034609B90A49116010682B
:100BF00009490A4C0344091B8B4206D902F01EFD29
:100C00000C2303604FF0FF3010BD1360FCE700BF02
:100C1000A40E0020686000200000022000040000F4
:100C2000034AD2F8883043F47003C2F88830704722
:100C300000ED00E0DFF834D00D480E490E4A0023E5
:100C400002E0D458C4500433C4188C42F9D30B4A80
:100C50000B4C002301E013600432A242FBD3FFF7E8
:100C6000DFFF02F0F1FCFFF787FE70470000022073
:100C70000000002074000020E04000087800002000
:100C800068600020FEE7000008B50B4B1A6842F4CC
:100C900000721A601A6842F480621A601A6842F49C
:100CA00080721A60032000F01BF80F20FFF750FF3E
:100CB000FFF7F8FE002008BD003C0240034A044B49
:100CC00011681B780B441360704700BFA80E00200A
:100CD00004000020014B1868704700BFA80E0020D8
:100CE0000749CA6822F4E0620302120403F4E063D5
:100CF000120C134343F0BF6343F40033CB607047DF
:100D000000ED00E0164B30B5DC68C4F30224C4F1FA
:100D10000705231D042D28BF0425062B4FF0FF33A4
:100D20008CBF033C002403FA05F521EA0501A3402A
:100D300022EA0302A140002841EA0203ACBF00F10D
:100D40006040084A4FEA0313B8BF00F00F00DBB25F
:100D5000AABF00F56140135480F8003330BD00BFD6
:100D600000ED00E014ED00E0002808DB420901235B
:100D700000F01F0003FA00F0014B43F82200704717
:100D800000E100E02DE9F74FDFF884915E4A00238F
:100D90000D6801249C4004EA050CAC4340F0A5809A
:100DA0004D6805F003044FEA43080326671E06FA60
:100DB00008F6012F6FEA060634D8876807EA060EA0
:100DC000CF6807FA08F747EA0E078760476827EAFF
:100DD0000C0EC5F300179F4047EA0E074760C7682F
:100DE00007EA060E8F6807FA08F747EA0E07022C93
:100DF000C76019D14FEAD30A00EB8A0A03F0070B48
:100E0000DAF820704FEA8B0B4FF00F0E0EFA0BFE44
:100E100027EA0E0E0F6907FA0BF747EA0E07CAF822
:100E2000207001E0032CDAD1076804FA08F43E4090
:100E3000264315F4403F066057D04FF0000ACDF826
:100E400004A0D9F84460314C46F48046C9F84460A7
:100E5000D9F8446006F480460196019E23F003060B
:100E600006F1804606F59C3603F0030ED6F808809E
:100E70004FEA8E0E0F2707FA0EF7A04228EA07075F
:100E80003AD004F58064A04238D004F58064A042D2
:100E900036D004F58064A04234D004F58064A042CA
:100EA0000CBF0424072404FA0EF43C43B460146815
:100EB0006FEA0C06EF0354BF34404CEA040414609C
:100EC0005468AF0354BF34404CEA0404546094683F
:100ED000EF0254BF34404CEA04049460D468AD027D
:100EE00054BF34404CEA0404D4600133102B7FF427
:100EF0004FAF03B0BDE8F08F5446D4E70124D2E7EA
:100F00000224D0E70324CEE7003C01400000024069
:100F1000003802400AB1816170470904FBE7000014
:100F20002DE9F341044640B30368DD0710D423687C
:100F300098075ED423681A0700F1A08023685B0736
:100F400000F1C080A069002840F0288100202BE03B
:100F50008F4B9A6802F00C02042A07D09A6802F0BC
:100F60000C02082A0BD15A68510208D5884B1B681D
:100F70009A03DCD56368002BD9D1012014E06268A4
:100F8000B2F5803F13D11A6842F480321A60FFF73D
:100F9000A1FE7F4E054633689B03C8D4FFF79AFE37
:100FA000401B6428F7D9032002B0BDE8F081784DDA
:100FB000B2F5A02F2B6807D143F480232B602B6858
:100FC00043F480332B60E2E723F480332B602B68FB
:100FD00023F480232B60002AD9D1FFF77BFE06463D
:100FE0002B689F03A3D5FFF775FE801B6428F7D9F4
:100FF000D9E7674B9A6812F00C0F07D09A6802F095
:101000000C02082A11D15B685E020ED4604A136894
:101010009D0702D5E368012BAFD11368216923F046
:10102000F80343EAC103136084E7E268594BB2B1A5
:1010300001221A60FFF74EFE554D06462B689807B1
:1010400007D52B68226923F0F80343EAC2032B601B
:1010500070E7FFF73FFE801B0228EFD9A3E71A6075
:10106000FFF738FE4A4E0546336899077FF562AFB1
:10107000FFF730FE401B0228F6D994E76269454B22
:1010800082B10122C3F8802EFFF724FE404E0546B0
:10109000736F9F073FF552AFFFF71CFE401B0228FE
:1010A000F6D980E7C3F8802EFFF714FE384E0546C8
:1010B000736F98077FF542AFFFF70CFE401B0228C5
:1010C000F6D970E7324B1A6C12F0805228D1019297
:1010D0001A6C42F080521A641B6C03F08053019327
:1010E000019B01272C4D2B68D9051BD5A368284DE2
:1010F000012B27D12B6F43F001032B67FFF7EAFD8C
:10110000234E054641F28838336F9B0739D5002FAF
:101110003FF418AF1E4A136C23F08053136411E799
:101120000027DFE72B6843F480732B60FFF7D2FDC5
:1011300006462B68DA05D9D4FFF7CCFD801B0228C0
:10114000F7D930E7052B04D12B6F43F004032B674D
:10115000D0E72A6F22F001022A672A6F22F00402E8
:101160002A67002BCAD1FFF7B5FD41F28838064641
:101170002B6F9807CBD5FFF7ADFD801B4045F7D906
:1011800011E7FFF7A7FD401B4045BDD90BE700BFA6
:10119000003802400000474200700040364DAB6806
:1011A00003F00C03082B3DD0344B002202281A66B2
:1011B0002BD1FFF78FFD06462B6899011FD4D4E988
:1011C00007321343626A43EA8213E26A43EA026324
:1011D000A26A5208013A43EA02436B60274B264D4C
:1011E00001221A66FFF776FD04462B689A013FF547
:1011F000ADAEFFF76FFD001B0228F6D9D3E6FFF76F
:1012000069FD801B0228D7D9CDE6FFF763FD0446B0
:101210002B689B017FF59AAEFFF75CFD001B02284F
:10122000F6D9C0E601283FF4BFAE6B68E26903F46B
:10123000800191427FF4A1AE216A03F03F028A420D
:101240007FF49BAE616A47F6C0721A40B2EB811F11
:101250007FF493AEA26A520803F44031013AB1EB35
:10126000024F7FF48AAEE26A03F07063B3EB026F61
:101270003FF46CAE81E600BF0038024000004742F8
:10128000134908B58B6803F00C03042B1CD0082B02
:101290001CD14A684B68496813F4800314BF0D4899
:1012A0000D48C1F3881118BF002302F03F02A1FBD3
:1012B0000001FEF795FF064B5B68C3F30143013362
:1012C0005B00B0FBF3F008BD0248FCE70248FAE718
:1012D0000038024040787D010024F4002DE9F041FF
:1012E0000D46044610B90120BDE8F081444B1A6850
:1012F00002F007028A4228D3226897072DD4D0072C
:1013000041D43F4B1A6802F00702AA4266D822680D
:1013100051076CD4130707D53A4A2169936823F41F
:10132000604343EAC1039360FFF7AAFF354B364A97
:101330009B68C3F30313D35CD840344B1860344B21
:101340001868FFF705FC0020CEE7CAB21A701B68C8
:1013500003F007038B42C6D1CEE72A4B12F0040FED
:101360001EBF996841F4E0519960160742BF996821
:1013700041F4604199602349A0688B6823F0F00331
:1013800003438B60BBE762681E4B012A1CD11B68BC
:1013900013F4003FA7D01B4EB36823F0030313439D
:1013A000B360FFF797FC41F288380746B36862687C
:1013B00003F00C03B3EB820FA3D0FFF78BFCC01B31
:1013C0004045F3D903208FE7911E01291B6802D8FD
:1013D00013F0007FDEE713F0020FDBE7EAB21A70CA
:1013E0001B6803F00703AB427FF47DAF8FE705492D
:1013F000E0688B6823F4E05303438B608AE700BF07
:10140000003C02400038024070400008000000200C
:1014100008000020044B054A9B68C3F38223D35C79
:10142000034A1068D84070470038024080400008E6
:1014300000000020044B054A9B68C3F34233D35C91
:10144000034A1068D84070470038024080400008C6
:10145000000000200F2303600B4B9A6802F0030288
:1014600042609A6802F0F00282609A6802F4E052E8
:10147000C2609B68DB0803F4E0530361034B1B6805
:1014800003F007030B60704700380240003C024045
:101490007047000090F83D30012B28D1022380F8DE
:1014A0003D300368DA6842F00102DA60114A934283
:1014B00012D0B3F1804F0FD0A2F57C4293420BD0F3
:1014C00002F58062934207D002F58062934203D016
:1014D00002F59A32934204D19A6802F00702062A72
:1014E00003D01A6842F001021A6000207047012000
:1014F000704700BF00000140704770477047704759
:1015000003681A69910710B504460ED5DA68920788
:101510000BD56FF002021A61012202779B699B07CB
:1015200077D0FFF7EAFF0023237723681A69500773
:1015300010D5DA6851070DD56FF004021A61022246
:1015400022779B6913F4407F204668D0FFF7D5FFD0
:101550000023237723681A6912070FD5DA6810076A
:101560000CD56FF008021A6104222277DB69990713
:1015700020465AD0FFF7C1FF0023237723681A695A
:10158000D20610D5DA68D0060DD56FF010021A61B8
:1015900008222277DB6913F4407F20464BD0FFF707
:1015A000ACFF0023237723681A69D10708D5DA68CE
:1015B000D20705D56FF001021A612046FFF768FADD
:1015C00023681A69100608D5DA68110605D56FF088
:1015D00080021A61204600F0B0F823681A695206AA
:1015E00008D5DA68500605D56FF040021A6120462A
:1015F000FFF785FF23681A69910622D5DA689206FB
:101600001FD56FF0200220461A61BDE8104000F09F
:1016100093B8FFF771FF2046FFF770FF83E7FFF7EE
:101620006BFF2046FFF76AFF92E7FFF765FF204652
:10163000FFF764FFA0E7FFF75FFF2046FFF75EFFBD
:10164000AFE710BD244A036890420ED0B0F1804F3E
:101650000BD0A2F57C42904207D002F58062904206
:1016600003D002F58062904215D14A6823F07003DE
:101670001343194A904219D0B0F1804F16D0A2F509
:101680007C42904212D002F5806290420ED002F568
:10169000806290420AD0114A904207D002F58062DF
:1016A000904203D002F58062904203D1CA6823F4CD
:1016B000407313434A6923F08003134303608B682C
:1016C000C3620B688362044B984204BF0B690363D7
:1016D00001234361704700BF00000140004001400A
:1016E00010B5044630B390F83D3003F0FF021BB94B
:1016F00080F83C20FFF7CCFE0223206884F83D30C0
:10170000211DFFF79FFF012384F84630002084F855
:101710003E3084F83F3084F8403084F8413084F81B
:10172000423084F8433084F8443084F8453084F8FB
:101730003D3010BD0120FCE7704770470268C1686A
:10174000136923F440530B4370B513610546836856
:101750000069D168034368690343E86921F41641CD
:1017600021F00C0103430B43D3605369A96923F4AF
:1017700040730B4353611F4B9A4203D003F58063C0
:101780009A4223D1FFF756FEEB691921B3F5004FBA
:10179000D5E90046A0FB01011BD1B2194FF00003AF
:1017A0005B41FEF71DFD6421B0FBF1F501FB150364
:1017B000DB003233B3FBF1F303F007025B0002EB13
:1017C000051203F4F8731344A36070BDFFF722FE03
:1017D000DAE7B200B30FFEF703FD6422B0FBF2F1CB
:1017E00002FB11031B013233B3FBF2F303EB0113D2
:1017F000EAE700BF00100140F8B504460E46174660
:101800001D462268136836EA030301D1002028E050
:101810006B1CF7D025B1FFF75DFAC01B8542F0D2F3
:10182000226802F10C0353E8003F23F4D0730C321A
:1018300042E8003021680028F2D101F1140353E896
:10184000003F23F0010301F1140040E80032002AB8
:10185000F3D1202384F83D3084F83C2084F83E30D6
:101860000320F8BD10B5044640B390F83D3003F0B6
:10187000FF021BB980F83C20FFF734F922682423CB
:1018800084F83D30D36823F40053D3602046FFF73B
:1018900055FF23681A6922F490421A615A6922F0AE
:1018A0002A025A61DA6842F40052DA6000202023EA
:1018B000206484F83D3084F83E3010BD0120FCE700
:1018C000F7B5174690F83D200093202A04460E46AF
:1018D00049D1002945D0002F43D090F83C20012A5F
:1018E00041D0012280F83C2000252122056480F8A7
:1018F0003D20FFF7EFF9A168009BA784B1F5805F59
:101900000246E78403D1216909B935460E46002114
:1019100084F83C10E18C89B241B940212046FFF7A0
:101920006BFF60B9202384F83D3009E08021204618
:10193000CDE90023FFF760FFDDE9002310B10320AC
:1019400003B0F0BD20684EB935F8021BC1F30801A1
:101950004160E18C013989B2E184DBE716F8011BB3
:10196000F6E70120ECE70220EAE708B54FF0E023B4
:101970001B6901F023FC012803D0BDE8084000F0FA
:1019800049BA08BDEFF305832BB9064B186828B98F
:1019900001221A6070476FF0050070474FF0FF306A
:1019A000704700BF3815002010B5EFF305845CB90F
:1019B000084B1A68012A0AD1074AD47702221A6012
:1019C00001F066F9204610BD6FF00500FBE74FF00F
:1019D000FF30F8E73815002000ED00E0F0B587B0E3
:1019E000144600220B460592EFF30582D2B9C8B126
:1019F000002C2FD0A569002D08BF1825691E372996
:101A0000AC462BD86168C90728D466696EB1B208A4
:101A1000D4E9027E216857B1BEF5916F02D32469E3
:101A200004B1EEB9059807B0F0BD8022F0E7BEF131
:101A3000000FF7D12469002CF4D10C4605A9CDE99B
:101A400000C192B2214601F0F5F801281CBF002325
:101A50000593E7E74FF0180C8022EFE71046E2E726
:101A6000CDE90147009501F0ABF80590DAE710B534
:101A7000EFF3058424B910B101F072FA204610BDCD
:101A80006FF00500FBE7F7B505460E461446EFF389
:101A900005871FB10025284603B0F0BD0028F9D006
:101AA0000029F7D0DAB1D2E9023283B14F2AF1D955
:101AB0002269002AEED066694D43AE42EAD3009710
:101AC00000F045FC05460028E4D0246811E0002A17
:101AD000E0D12369002BDDD16369002BDAD12846E0
:101AE0000022314600F081FC05460028D2D0002CAF
:101AF000EBD12146284600F0A3FECCE773B51C4687
:101B0000EFF30586C6B118B311B30BBB01AA01935D
:101B100000F045FD012818D1019B13B9002002B047
:101B200070BD4FF0E0234FF08052C3F8042DBFF397
:101B30004F8FBFF36F8FF1E750B149B13346224663
:101B400000F07AFC0128E9D02CB96FF00200E6E73A
:101B50006FF00300E3E76FF00100E0E737B51C46E4
:101B6000EFF30583C3B110B309B304BB01AA019419
:101B700000F016FE012817D1019B13B9002003B015
:101B800030BD4FF0E0234FF08052C3F8042DBFF377
:101B90004F8FBFF36F8FF1E748B141B1224600F09C
:101BA00060FD0128EAD02CB96FF00200E7E76FF082
:101BB0000300E4E76FF00100E1E70000034B03607E
:101BC000034B0B6080231360704700BFB0100020F0
:101BD000AC0E0020034B0360034B0B604FF480738B
:101BE00013607047401900203C15002000F10803E5
:101BF0004FF0FF32C0E9022343600361002303601A
:101C0000704700230361704743684B609A688A609D
:101C10009A685160996003680861013303607047F6
:101C200030B50C68631C0AD103695A684A60916038
:101C30008B605960036808610133036030BD00F1B7
:101C40000802134652681568A542FAD9EDE7D0E9B3
:101C5000011203698A6051605968814208BF5A6065
:101C6000002202611A68013A1A6018687047000081
:101C700008480068006880F308884FF0000080F38F
:101C8000148862B661B6BFF34F8FBFF36F8F00DF6A
:101C900000BF000008ED00E0DFF80C00016841F42F
:101CA000700101607047000088ED00E082B0002301
:101CB00001930D4B1B68013308D04FF0500383F3A1
:101CC0001188BFF36F8FBFF34F8FFEE74FF05003C4
:101CD00083F31188BFF36F8FBFF34F8F019B002BEE
:101CE000FCD002B0704700BF0C0000204FF08073A2
:101CF00040F8043C074B40F80C3C21F001016FF028
:101D0000020340F8081C40F8202C40F8243C4438DA
:101D1000704700BFAD1C000800000000000000007C
:101D2000074B19680868B0E8F04F80F30988BFF3E3
:101D30006F8F4FF0000080F311887047AFF3008081
:101D4000305A00204FF0500383F31188BFF36F8F98
:101D5000BFF34F8F0A4A13680133012B13600ED172
:101D60004FF0E023D3F8043DDBB243B14FF0500312
:101D700083F31188BFF36F8FBFF34F8FFEE7704778
:101D80000C000020084A136843B94FF0500383F356
:101D90001188BFF36F8FBFF34F8FFEE7013B1360D6
:101DA0000BB983F3118870470C000020000000007D
:101DB000EFF30980BFF36F8F154B1A681EF0100FF9
:101DC00008BF20ED108A20E9F04F10602DE90900CE
:101DD0004FF0500080F31188BFF34F8FBFF36F8F28
:101DE00001F0E2F84FF0000080F3118809BC196897
:101DF0000868B0E8F04F1EF0100F08BFB0EC108A72
:101E000080F30988BFF36F8F704700BFAFF3008086
:101E1000305A002008B54FF0500383F31188BFF308
:101E20006F8FBFF34F8F00F091FF28B14FF0E02389
:101E30004FF08052C3F8042D002383F3118808BDAE
:101E40004FF0E022002313619361054B4FF47A7148
:101E50001B68B3FBF1F3013B536107231361704728
:101E6000000000204FF0E02337B5D3F8001D3A4AB8
:101E7000914208D14FF0500383F31188BFF36F8F65
:101E8000BFF34F8FFEE7D3F8002D344B9A4208D1B1
:101E90004FF0500383F31188BFF36F8FBFF34F8F61
:101EA000FEE72F4B1A78D2B20192FF221A701B78EC
:101EB0002C4ADBB28DF803309DF8033003F0500359
:101EC0001370294A0723136000219DF803000006C0
:101ED00003F1FF340CD411B1032B136011D04FF078
:101EE000500383F31188BFF36F8FBFF34F8FFEE76B
:101EF0009DF803305B00DBB28DF8033001212346EF
:101F0000E3E74FF440731360019B154A4FF0E02460
:101F1000DBB21370D4F8203D43F47003C4F8203DC5
:101F2000D4F8203D43F07043C4F8203DFFF788FF0C
:101F30000E4B00251D60FFF7AFFED4F8343F43F091
:101F40004043C4F8343FFFF793FE01F02DF8FFF74C
:101F5000ADFE284603B030BD71C20F4170C20F41C3
:101F600000E400E0C81D0020CC1D00200C00002073
:101F7000EFF305830F2B0ED9114A9B5C114A12789F
:101F80009A4208D94FF0500383F31188BFF36F8F43
:101F9000BFF34F8FFEE74FF0E0230B4AD3F80C3D21
:101FA000126803F4E063934208D94FF0500383F3BF
:101FB0001188BFF36F8FBFF34F8FFEE7704700BFED
:101FC000F0E300E0C81D0020CC1D002010B50F4B31
:101FD0001A461B688342FBD354681119884201BF1B
:101FE0004168104609195160446801198B4207D1B4
:101FF000074909688B421FBF59681B68091941606E
:102000009042036018BF106010BD00BFE859002067
:10201000D01D00202DE9F041044600F089FE3E4825
:102020003E4D0368CBB93E4A3E4B56071CBF0732B4
:1020300022F0070200211A6059603B4B23F007038E
:10204000C3E90011991AC2E900310360374B1960E6
:10205000374B19604FF000432B602F68274255D152
:10206000002C46D004F1080361071CBF23F00703CE
:102070000833002B4AD02E4C26689E4246D3294A6C
:1020800015686968994204D2D5F800C0BCF1000F08
:1020900015D10068A84239D0C91A2868D2F8008042
:1020A0001060102912D9E81842070BD04FF05003E6
:1020B00083F31188BFF36F8FBFF34F8FFEE72A467C
:1020C0006546DEE741606B60FFF780FF6B6817498C
:1020D000184A0868F61A1F4300232B60136826600D
:1020E000864203F1010338BF0E6008F108046F60F7
:1020F000136000F0C1FE63070AD04FF0500383F372
:102100001188BFF36F8FBFF34F8FFEE70024F0E716
:102110002046BDE8F08100BFD01D0020D45900202A
:10212000D41D0020E8590020CC590020DC590020A3
:10213000D8590020E059002010B5044690B31A4A3F
:1021400050F8043C1268134208D14FF0500383F357
:102150001188BFF36F8FBFF34F8FFEE750F8081C55
:1021600041B14FF0500383F31188BFF36F8FBFF37A
:102170004F8FFEE723EA020340F8043C00F0D8FD4D
:102180000A4A54F8043C1168A4F108000B44136097
:10219000FFF71CFF064A1368BDE8104001331360C7
:1021A00000F06ABE10BD00BFD4590020D8590020ED
:1021B000E459002010B50446FFF7C4FDA46BFFF7F7
:1021C000E1FDB4FA84F0400910BDF8B51546026C83
:1021D000866B044652B9076847BB806800F0FEFF73
:1021E000A76005460136A6632846F8BD65B9406874
:1021F00001F04EFA6368226C1344A2686360934254
:10220000F0D323686360EDE7C06801F041FA226C07
:10221000E36851429B1A2268E36093423EBFA36881
:102220005B18E360022D01D116B1013E0025D9E70C
:102230003546D7E7034610B41A6C08466AB1DC6825
:10224000996814448C4228BF1968DC6028BFD960A3
:10225000D9685DF8044B01F01BBA5DF8044B704778
:1022600070B50446FFF76EFD94F8455004F124065E
:102270006DB2002D14DCFF2384F84530FFF782FD9A
:10228000FFF760FD94F8445004F110066DB2002D84
:1022900012DCFF2384F84430BDE87040FFF772BDC4
:1022A000636A002BE7D0304600F0F6FE08B100F07C
:1022B0007FFF013D6DB2DCE72369002BE9D030469A
:1022C00000F0EAFE08B100F073FF013D6DB2DEE7F9
:1022D00038B50D46044640B94FF0500383F31188DA
:1022E000BFF36F8FBFF34F8FFEE7FFF72BFDD4E9EE
:1022F0000F31226862604B43D0185B1A1344A06010
:10230000E3600020FF23A06384F8443084F8453064
:10231000A5B9236973B104F1100000F0BDFE48B106
:102320004FF0E0234FF08052C3F8042DBFF34F8FDE
:10233000BFF36F8FFFF726FD012038BD04F11000B9
:10234000FFF754FC04F12400FFF750FCF2E713B54B
:102350001C4640B94FF0500383F31188BFF36F8FD1
:10236000BFF34F8FFEE743B94FF0500383F311885B
:10237000BFF36F8FBFF34F8FFEE74AB191B94FF0B4
:10238000500383F31188BFF36F8FBFF34F8FFEE7C6
:1023900041B14FF0500383F31188BFF36F8FBFF348
:1023A0004F8FFEE750230193019B502B08D04FF035
:1023B000500383F31188BFF36F8FBFF34F8FFEE796
:1023C000002908BF2246019B22600123C4E90F01B6
:1023D00084F8463019462046FFF77AFF9DF8103002
:1023E00084F84C30204602B010BDF8B50D461746B3
:1023F000064640B94FF0500383F31188BFF36F8F47
:10240000BFF34F8FFEE748435030FFF703FE04460B
:1024100070B1002380F8463065B100F15003C4E983
:102420000F65236001212046FFF752FF84F84C70AE
:102430002046F8BD0346F2E72DE9F04385B0884613
:1024400001921F46044640B94FF0500383F31188B0
:10245000BFF36F8FBFF34F8FFEE751B9036C43B1EA
:102460004FF0500383F31188BFF36F8FBFF34F8F8B
:10247000FEE7022F0BD1E36B012B08D04FF0500386
:1024800083F31188BFF36F8FBFF34F8FFEE700F028
:1024900095FE064650B9019B4BB14FF0500383F3B4
:1024A0001188BFF36F8FBFF34F8FFEE700264FF009
:1024B000000937E0019D1DB9FFF764FC002052E0E0
:1024C00016B902A800F02CFEFFF75CFC00F030FC0F
:1024D000FFF738FC94F84430FF2B08BF84F8449091
:1024E00094F84530FF2B08BF84F84590FFF74AFC6D
:1024F00001A902A800F020FE00284AD1FFF722FC23
:10250000A26BE36B9A4231D1FFF73CFC019904F1D5
:10251000100000F089FD2046FFF7A2FE00F0ACFCA1
:1025200060B30126FFF70EFCA26BE36B9A4201D366
:10253000022FBFD13A4641462046FFF746FE636A66
:102540001BB104F1240000F0A7FD48B14FF0E023D7
:102550004FF08052C3F8042DBFF34F8FBFF36F8F3E
:10256000FFF710FC012005B0BDE8F083FFF70AFC7F
:102570002046FFF775FE00F07FFCD2E74FF0E02326
:102580004FF08052C3F8042DBFF34F8FBFF36F8F0E
:10259000C7E72046FFF764FE00F06EFC8EE72DE9EA
:1025A000F843894690461F46044640B94FF0500311
:1025B00083F31188BFF36F8FBFF34F8FFEE751B9DD
:1025C000036C43B14FF0500383F31188BFF36F8F57
:1025D000BFF34F8FFEE7022F0BD1E36B012B08D027
:1025E0004FF0500383F31188BFF36F8FBFF34F8F0A
:1025F000FEE7FFF7BDFCEFF311864FF0500383F3C6
:102600001188BFF36F8FBFF34F8FA26BE36B9A42BA
:1026100001D3022F23D194F84550A36B6DB23A46F3
:1026200049462046FFF7D1FD6B1C13D1636A0BB9F5
:1026300001200BE004F1240000F02EFD0028F7D06B
:10264000B8F1000FF4D00120C8F8000086F311881B
:10265000BDE8F88301356DB284F84550E8E7002005
:10266000F4E72DE9FF410F460192044640B94FF0CF
:10267000500383F31188BFF36F8FBFF34F8FFEE7D3
:1026800051B9036C43B14FF0500383F31188BFF38A
:102690006F8FBFF34F8FFEE700F090FD064650B9F5
:1026A000019B4BB14FF0500383F31188BFF36F8F41
:1026B000BFF34F8FFEE700264FF000083DE0019D7D
:1026C0001DB9FFF75FFB002056E016B902A800F025
:1026D00027FDFFF757FB00F02BFBFFF733FB94F8C8
:1026E0004430FF2B08BF84F8448094F84530FF2B1A
:1026F00008BF84F84580FFF745FB01A902A800F058
:102700001BFD002841D12046FFF754FDB8B30199C5
:1027100004F1240000F088FC2046FFF7A1FD00F042
:10272000ABFB48B94FF0E0234FF08052C3F8042DC3
:10273000BFF34F8FBFF36F8F0126FFF703FBA56B2E
:10274000002DBCD039462046013DFFF773FDA5633F
:10275000236973B104F1100000F09EFC48B14FF002
:10276000E0234FF08052C3F8042DBFF34F8FBFF327
:102770006F8FFFF707FB012004B0BDE8F081204612
:10278000FFF76EFD00F078FBD6E72046FFF768FD07
:1027900000F072FB2046FFF70DFD0028CCD092E739
:1027A0002DE9F84389469046054640B94FF050035D
:1027B00083F31188BFF36F8FBFF34F8FFEE751B9DB
:1027C000036C43B14FF0500383F31188BFF36F8F55
:1027D000BFF34F8FFEE7FFF7CBFBEFF311874FF00F
:1027E000500383F31188BFF36F8FBFF34F8FAC6B30
:1027F0001CB395F84460494676B22846FFF71AFDA7
:10280000013C731CAC6313D12B690BB901200BE0A5
:1028100005F1100000F040FC0028F7D0B8F1000FDF
:10282000F4D00120C8F8000087F31188BDE8F883D0
:10283000013676B285F84460E8E72046F4E7000008
:1028400010B5074A002352F833402CB942F8331030
:1028500002EBC303586010BD0133082BF3D1FAE734
:10286000F059002070B504460D461646FFF76AFA87
:1028700094F84430FF2B04BF002384F8443094F8CC
:102880004530FF2B04BF002384F84530FFF77AFA68
:10289000A36B2BB93246294604F1240000F0DEFB7D
:1028A0002046BDE87040FFF7DBBC00002DE9F04199
:1028B0000446FFF747FA304B304E1A68304F01326A
:1028C0001A603568002D4BD134601B68012B1FD175
:1028D000B84640460135FFF789F9382D08F114084C
:1028E000F7D1DFF8C480274D4046FFF77FF928462F
:1028F000FFF77CF92448FFF779F92448FFF776F9C8
:102900002348FFF773F9234BC3F80080224B1D6067
:10291000224A136801331360214A63641168E36A31
:1029200014208B4200FB037004F1040188BF136084
:10293000FFF76AF9FFF726FA1A4B1B6873B1336881
:10294000DA6AE36A9A4209D24FF0E0234FF08052EC
:10295000C3F8042DBFF34F8FBFF36F8FBDE8F08135
:10296000104B1B68002BD3D13368DA6AE36A9A42B2
:1029700098BF3460CCE700BF9C5E0020305A002036
:102980003C5A0020C45E0020E45E0020105F00205E
:10299000FC5E0020345A0020385A0020A85E002037
:1029A000AC5E0020F85E0020B05E0020F8B5154B4C
:1029B000154E1D680446306804300F46FFF747F98E
:1029C000631C07D137B131681048BDE8F8400431C5
:1029D000FFF71AB933682C195C6007D30C4B1868E1
:1029E0003168BDE8F8400431FFF71AB9094B18689F
:1029F00031680431FFF714F9074B1A68A24288BF07
:102A00001C60F8BD245F0020305A0020FC5E0020CE
:102A1000385A0020345A0020D85E0020064A136835
:102A20001968064B19B94FF0FF321A6070471268E7
:102A3000D268D2685268F8E7345A0020D85E002085
:102A400010B50446583000F047FE94F885343BB981
:102A5000206BFFF771FB2046BDE81040FFF76CBB11
:102A6000012BF8D0022B08D04FF0500383F31188CC
:102A7000BFF36F8FBFF34F8FFEE710BD80B5134CD0
:102A8000134F144D236873B9134B1B68012BF8D9EE
:102A90004FF0E0234FF08052C3F8042DBFF34F8F67
:102AA000BFF36F8FEDE7FFF74DF9FB68DE68301D70
:102AB000FFF7CDF82B68013B2B602368013B2360B7
:102AC000FFF760F93046FFF7BBFFDBE7A05E0020B1
:102AD000105F00209C5E00203C5A00202DE9F0474A
:102AE000DDE909844FEA82094A4606460D46206B15
:102AF000A5211F4600F0DAFD226BA9F104099144DB
:102B000029F00709002D52D06B1E04F134020F3555
:102B100013F8010F02F8010B08B1AB42F8D1002302
:102B200084F84330089D372D28BF37254FF0000A21
:102B3000E562E564201DC4F850A0FFF762F8C5F116
:102B4000380504F11800FFF75CF8C4F880A44FF4CE
:102B5000856251462461A561646284F884A404F10D
:102B6000580000F0A3FD04F55173E36504F56B73A1
:102B7000236604F21443636601220023C4E9402360
:102B80000C4A0D4BC4E942230C4BC4F810310B2303
:102B9000A4F814313A4631464846FFF7A7F82060BA
:102BA000B8F1000F01D0C8F80040BDE8F08784F804
:102BB0003450B7E70E33CDAB34126DE6ECDE0500D2
:102BC00070B586B0DDE90B5445B94FF0500383F37F
:102BD0001188BFF36F8FBFF34F8FFEE744B94FF0FB
:102BE000500383F31188BFF36F8FBFF34F8FFEE75E
:102BF0004FF491660596059EB6F5916F08D04FF09B
:102C0000500383F31188BFF36F8FBFF34F8FFEE73D
:102C10002563022584F8855404AD01950A9D02942C
:102C20000095059EFFF75AFF2046FFF73FFE0498E8
:102C300006B070BD2DE9F043074685B09000884688
:102C400016469946FFF7E6F90546F0B14FF4916054
:102C5000FFF7E0F90446A8B1002380F885340D9B06
:102C6000056301930C9B0290009332464B4641460C
:102C70003846FFF733FF2046FFF718FE012005B066
:102C8000BDE8F0832846FFF757FA4FF0FF30F6E72C
:102C900010B588B0002407AA06A905A8CDE9054407
:102CA000FEF78CFF059B0293069B079A19491A4869
:102CB000CDE900432346FFF783FF40B300F024FB38
:102CC000012819D14FF0500383F31188BFF36F8FA0
:102CD000BFF34F8F114B124A1B6858331360114BCF
:102CE0004FF0FF321A60104B1860104B1C6008B098
:102CF000BDE81040FFF7B6B8013008D14FF05003DF
:102D000083F31188BFF36F8FBFF34F8FFEE708B0D7
:102D100010BD00BF884000087D2A0008305A0020FE
:102D200010000020D85E0020F85E0020245F002004
:102D3000024A136801331360704700BFA45E00208D
:102D4000014B1868704700BF245F00203F4B1B6891
:102D50002DE9F74F002B73D13D4B1D6801351D60E8
:102D6000BDB93C4B1A68126842B14FF0500383F36F
:102D70001188BFF36F8FBFF34F8FFEE7364A196894
:102D8000106818601160354A136801331360FFF74B
:102D900045FE334E334F3368DFF8D4809D424FF009
:102DA000000411D2D8F80030DB6A14225343FB58D8
:102DB000022B2D4B1B6828BF0124002B18BF0124B8
:102DC000204603B0BDE8F08FDFF88890DFF8A4A0BC
:102DD000D9F800301B681BB94FF0FF333360E1E7CF
:102DE000D9F80030DB68D3F80CB0DBF8042095424A
:102DF00001D23260D6E70BF1040108460191FEF7DB
:102E000026FFDBF82820019922B10BF11800FEF70C
:102E10001EFF0199DBF82C00DAF800201423904201
:102E200088BFCAF8000003FB0070FEF7EDFED8F87B
:102E30000010DBF82C20CB6A9A4228BF0124C7E798
:102E40000A4A1368013313600024B9E7A45E002026
:102E5000245F0020345A0020385A0020DC5E002015
:102E6000D85E00203C5A0020285F0020E05E002051
:102E7000305A0020AC5E0020F7B5314C236843B9CE
:102E80004FF0500383F31188BFF36F8FBFF34F8F61
:102E9000FEE7FEF757FF2368013B236024682CB14F
:102EA0000024FEF76FFF204603B0F0BD254B1B68E2
:102EB000002BF5D0244D254E254F1EE0EB68DC6835
:102EC00004F11800FEF7C3FE211D08460191FEF72C
:102ED000BEFEE36A326801991420934200FB03703E
:102EE00088BF3360FEF790FE1A4BE26A1B68DB6A0C
:102EF0009A4202D3184B01221A602B68002BDDD1B5
:102F00000CB1FFF78BFD154D2C6844B1124E012713
:102F1000FFF71CFF00B13760013CF9D12C600E4B6C
:102F20001B68002BBCD04FF0E0234FF08052C3F859
:102F3000042DBFF34F8FBFF36F8F0124B1E700BFA4
:102F4000A45E00209C5E0020E45E0020AC5E0020B9
:102F50003C5A0020305A0020285F0020E05E00200C
:102F600008B550B94FF0E0234FF08052C3F8042D5C
:102F7000BFF34F8FBFF36F8F08BD0A4B196841B184
:102F80004FF0500383F31188BFF36F8FBFF34F8F60
:102F9000FEE7FFF7CDFEFFF709FDFFF76DFF002805
:102FA000E0D0E9E7A45E0020194B1A68194B70B510
:102FB00012B101221A6070BD174D1A602A681749B4
:102FC000142606FB02F3C818CC58ACB14468083389
:102FD000646844600B449C4204BF636843601423EC
:102FE00003FB02114B68D9680D4B19602A601B68FE
:102FF0000C4A58331360DEE742B94FF0500383F3B5
:103000001188BFF36F8FBFF34F8FFEE7013AD8E708
:10301000A45E0020285F0020AC5E00203C5A002007
:10302000305A00201000002010B50C4640B94FF077
:10303000500383F31188BFF36F8FBFF34F8FFEE709
:10304000054B19681831FEF7EBFD20460121BDE85C
:103050001040FFF7ABBC00BF305A002038B50D461A
:10306000144640B94FF0500383F31188BFF36F8FBC
:10307000BFF34F8FFEE7074B19681831FEF7C4FD09
:10308000002C21460CBF28464FF0FF30BDE83840E9
:10309000FFF78CBC305A0020C36813B5DC6844B914
:1030A0004FF0500383F31188BFF36F8FBFF34F8F3F
:1030B000FEE704F1180108460191FEF7C8FD124B26
:1030C00001991B68EBB9211D08460191FEF7BFFD70
:1030D0000E4AE36A10680199834288BF13600C4A64
:1030E000142000FB0320FEF78FFD0A4BE26A1B68E9
:1030F000DB6A9A4285BF084B01200020186002B0AD
:1031000010BD0648EFE700BFA45E0020AC5E0020C3
:103110003C5A0020305A0020285F0020E45E002046
:10312000034B1B680360034B1B684360704700BF81
:10313000DC5E0020245F002070B50C46054640B9D7
:103140004FF0500383F31188BFF36F8FBFF34F8F9E
:10315000FEE741B94FF0500383F31188BFF36F8F3F
:10316000BFF34F8FFEE7FEF7EDFD0F4B19682368A5
:103170005A1C10D00D482E6800686A68864201D03B
:103180008A420FD9881A83420AD95B1A13442360F2
:103190002846FFF7C5FF0024FEF7F4FD204670BD6A
:1031A000002323600124F7E7245F0020DC5E002079
:1031B000014B01221A607047285F0020054B1B68F5
:1031C00033B1054B1B68002B0CBF02200020704759
:1031D00001207047F85E0020A45E002013B510B9EE
:1031E000002002B010BD1C4B1C68844208D04FF078
:1031F000500383F31188BFF36F8FBFF34F8FFEE748
:10320000236D43B94FF0500383F31188BFF36F8FE1
:10321000BFF34F8FFEE7E16AE26C013B9142236509
:10322000DED0002BDCD1211D08460191FEF70FFDF9
:10323000E36C0199E362C3F13802A261074A1068A6
:10324000834288BF1360064A142000FB0320FEF768
:10325000DBFC0120C5E700BF305A0020AC5E002037
:103260003C5A0020F7B5114CFEF76CFD2568BDB93E
:103270000F4F104E3846FEF7B9FC3046FEF7B6FC4D
:103280000D4B0E4A1F600E4B10211E600A200D4B85
:103290000095FFF75CF8206010B10B49FFF7D0FAFA
:1032A00003B0BDE8F040FEF76DBD00BF50600020E8
:1032B000D45F0020E85F00202C5F0020345F0020F6
:1032C000305F0020006000208D400008914208B56A
:1032D000416000610AD8D21A83699A420DD2084B24
:1032E000011D1868FEF79CFC002008BD9A4201D21F
:1032F000994202D2034B011DF3E70120F5E700BF1D
:10330000305F00202C5F002010B588B0FFF7AAFFC7
:10331000124B1B68B3B1002407AA06A905A8CDE982
:103320000544FEF757FC059B0293069B019302237D
:103330000093079A0A490B482346FFF741FC0A4BC2
:10334000186040B94FF0500383F31188BFF36F8FBB
:10335000BFF34F8FFEE7012008B010BD5060002082
:103360009240000871340008546000207FB5164672
:1033700004461A4640B94FF0500383F31188BFF357
:103380006F8FBFF34F8FFEE70D4D286880B1052981
:10339000CDE9001602940DDCFFF710FF0023022890
:1033A00008BF089A286818BF1A466946FFF744F80C
:1033B00004B070BD00236946FFF7F1F8F8E700BFDD
:1033C000506000202DE9FF47DFF8A0800646FFF798
:1033D000B7FCD8F800308342054640D9214F4FF062
:1033E00000093B681A685AB91F4A116839601360AE
:1033F000012328463360C8F8005004B0BDE8F087C8
:10340000DB68DC68D3F800A0211D08460391FEF7B5
:103410001EFC236A2046984794F82830039913F03D
:10342000040FDED0A36953449A4505D2386863601F
:103430002461FEF7F5FBD4E70023CDF80090524657
:1034400019462046FFF792FF0028CAD14FF05003DB
:1034500083F31188BFF36F8FBFF34F8FFEE7002315
:10346000C7E700BF2C5F0020305F0020FC5F00201A
:103470002DE9F0436E4D6F4E89B02B68D3F8008074
:10348000B8F1000F35D0DB68D3F800800024FFF7D7
:103490004FFC04A8FFF796FF049B8146002B69D1DF
:1034A000002C4CD1404550D3FFF7E6FC2B68DB687D
:1034B000DF68381DFEF7CBFB97F8283058071AD580
:1034C000B96943464A4641443846FFF7FFFEB0B16A
:1034D00000942346424621463846FFF747FF70B91D
:1034E0004FF0500383F31188BFF36F8FBFF34F8FFB
:1034F000FEE70124CBE723F0010387F828303B6A7D
:10350000384698473068002204A9FFF7AAF8002837
:10351000B3D0049B0698002B2FDB069C6369002B1D
:1035200032D103A8FFF74EFF049B0246092BE9D8CE
:10353000DFE803F02E2E2E575E762E2E575E3E4B82
:103540001B681C68B4FA84F4640930682246A8EB4E
:103550000901FFF787F9FFF78FFC0028D2D14FF060
:10356000E0234FF08052C3F8042DBFF34F8FBFF319
:103570006F8FC7E7FFF780FCC4E7059B0799984763
:10358000049B002BBEDBC8E7201DFEF760FBC8E7ED
:1035900094F82830A16943F0010384F82830059B92
:1035A00020461944FFF792FE0028ABD0236A20463C
:1035B000984794F828305907A4D5A26905990023A3
:1035C0000A44009319462046FFF7D0FE002899D1FF
:1035D0004FF0500383F31188BFF36F8FBFF34F8F0A
:1035E000FEE794F8283023F0010384F8283089E7B7
:1035F00094F8283043F0010384F828300599A1613C
:1036000041B94FF0500383F31188BFF36F8FBFF3BD
:103610004F8FFEE7034601442046FFF757FE71E750
:1036200094F828309A07DED42046FEF785FD69E736
:103630002C5F002050600020305F0020014B186894
:10364000704700BF1000002070B50D4D0D4C641B7D
:10365000A4100026A64209D10B4D0C4C00F0B4FC7E
:10366000641BA4100026A64205D170BD55F8043B8A
:1036700098470136EEE755F8043B98470136F2E7E4
:10368000D8400008D8400008D8400008DC400008B6
:103690000A44914200F1FF3300D1704710B511F890
:1036A000014B03F8014F9142F9D110BD024403468A
:1036B000934200D1704703F8011BF9E738B50C4677
:1036C0000968054609B1FFF7F9FF21462846BDE81C
:1036D000384000F07DB800002C4B1B68834270B569
:1036E000044651D0436A43B1DB68002B4AD1636A78
:1036F000196811B1204600F06BF8616911B12046DC
:1037000000F066F8616A11B1204600F061F8A16B23
:1037100011B1204600F05CF8E16B11B1204600F0D9
:1037200057F8216C11B1204600F052F8E16D11B14B
:10373000204600F04DF8A16D11B1204600F048F888
:10374000616B11B1204600F043F8A369E3B1A36AAD
:1037500020469847A16CB9B12046BDE87040FFF7FC
:10376000ADBF495941B90435636A802DD968F8D194
:10377000204600F02DF8BAE70E68204600F028F841
:103780003146EFE70025EFE770BD00BF10000020D5
:103790000EB400B59CB01DAB029006906FF00041D6
:1037A000094807910491094953F8042B05910068D1
:1037B000019302A900F00EF9029B00221A701CB0BE
:1037C0005DF804EB03B07047100000200802FFFF13
:1037D00037B5002944D051F8043C0190002BA1F1E9
:1037E0000404B8BFE41800F0B3FB1E4A0198136844
:1037F00033B96360146003B0BDE8304000F0AEBB85
:10380000A34208D9256861198B4201BF19685B681A
:1038100049192160EDE71A465B680BB1A342FAD95A
:1038200011685518A5420BD1246821445418A342AD
:103830001160E0D11C685B68536021441160DAE7D5
:1038400002D90C230360D6E7256861198B4204BFB7
:1038500019685B68636004BF491921605460CAE756
:1038600003B030BD5C600020F8B5CD1C25F0030529
:1038700008350C2D38BF0C25002D064601DBA9426A
:1038800003D90C2333600020F8BD00F061FB21490F
:103890000A6814469CB9204F3B6823B9214630463C
:1038A00000F02CFB38602946304600F027FB431C13
:1038B00023D10C233360304600F050FBE3E723684C
:1038C0005B1B17D40B2B03D923601C44256004E039
:1038D0006368A2420CBF0B605360304600F03EFBB1
:1038E00004F10B00231D20F00700C21ACCD01B1AD4
:1038F000A350C9E722466468CCE7C41C24F0030443
:10390000A042E3D0211A304600F0F8FA0130DDD1B0
:10391000CFE700BF5C600020606000202DE9F04729
:103920008E689E4282460C4690461F4638D88A8949
:1039300012F4906F32D025680969A5EB0109656919
:1039400005EB450505EBD57501334B446D109D42E4
:1039500038BF1D46530531D52946FFF785FF06467A
:1039600050B90C23CAF80030A38943F04003A38167
:103970004FF0FF30BDE8F08721694A46FFF788FE27
:10398000A38923F4906343F08003A38126616561DA
:103990004E44A5EB09052660A5603E46BE4200D90F
:1039A0003E4620683246414600F0B8FAA3689B1BA9
:1039B000A3602368334423600020DBE72A4600F03D
:1039C000D3FA06460028E1D121695046FFF700FFEF
:1039D000C7E700002DE9F04F98468B891B069DB084
:1039E00007460D4614460ED50B6963B94021FFF713
:1039F0003BFF2860286120B90C233B604FF0FF306B
:103A0000D1E040236B610023099320238DF82930F6
:103A1000CDF80C803023DFF8A8818DF82A304FF0E4
:103A2000010923469A4613F8012B0AB1252AF9D138
:103A3000BAEB040B0BD05B46224629463846FFF70B
:103A40006DFF013000F0AA80099A5A4409929AF851
:103A50000030002B00F0A28000234FF0FF32CDE9B0
:103A600005230AF1010A049307938DF853301A9342
:103A70005446052214F8011B5148FCF741FD049AF5
:103A8000D8B9D00644BF20238DF85330110744BF66
:103A90002B238DF853309AF800302A2B15D0079A33
:103AA000544600204FF00A0C214611F8013B303BF0
:103AB000092B4ED9B0B1079214E0A0EB080309FA24
:103AC00003F313430493A246D2E7039B191D1B681B
:103AD0000391002BBBBF5B4242F0020207930793A6
:103AE000B8BF049223782E2B0CD163782A2B35D1C2
:103AF000039B1A1D1B680392002BB8BF4FF0FF33C6
:103B000002340593DFF8C8A0217803225046FCF761
:103B1000F7FC40B14023A0EB0A0003FA00F0049B3D
:103B200003430134049314F8011B26488DF8281030
:103B30000622FCF7E5FC002838D0234B1BBB039B77
:103B4000073323F0070308330393099B3344099396
:103B500067E70CFB02320C460120A5E70023013485
:103B6000059319464FF00A0C204610F8012B303A05
:103B7000092A03D9002BC5D00591C3E70CFB01210D
:103B800004460123F0E703AB00932A460F4B04A938
:103B90003846AFF30080421C0646D6D1AB895B069F
:103BA0003FF52CAF09981DB0BDE8F08F03AB009333
:103BB0002A46064B04A9384600F07AF8EBE700BF26
:103BC0009A400008A4400008000000001D390008C9
:103BD000A04000082DE9F047164699468A680B690F
:103BE000DDF820809342B8BF1346336091F843203C
:103BF00007460C460AB1013333602368990642BF79
:103C0000336802333360256815F0060506D104F1E8
:103C1000190AE36832689B1AAB4226DC94F8432009
:103C2000131E226818BF012392062BD404F143020D
:103C300049463846C04701301ED02368E5683268DF
:103C400003F00603042B08BFAD1AA36822690CBF5A
:103C500025EAE57500259342C4BF9B1AED1800269E
:103C60001A34B5421AD1002008E0012352464946D1
:103C70003846C047013003D14FF0FF30BDE8F08730
:103C80000135C6E7E1185A1C302081F84300224470
:103C900094F8451082F843100233C7E70123224607
:103CA00049463846C0470130E6D00136D9E7000022
:103CB0002DE9FF470F7E0C9D782F914680460C46DC
:103CC0009A4601F1430207D8622F0AD8002F00F06C
:103CD000D880582F00F0A38004F1420584F8427088
:103CE0003AE0A7F16303152BF6D801A151F823F0B0
:103CF000493D00085D3D0008D93C0008D93C00085A
:103D0000D93C0008D93C00085D3D0008D93C0008BA
:103D1000D93C0008D93C0008D93C0008693E00089D
:103D20008D3D00084B3E0008D93C0008D93C0008F6
:103D30008B3E0008D93C00088D3D0008D93C0008A6
:103D4000D93C0008533E00082B681A1D1B682A60E6
:103D500004F1420584F842300123A3E02068296879
:103D6000060601F104030AD50E682B60002E03DA63
:103D70002D23764284F843305E480A2319E00E680A
:103D80002B6010F0400F18BF36B2EFE72B682068A9
:103D9000191D2960010601D51E6802E04606FBD503
:103DA0001E8854486F2F0CBF08230A23002184F873
:103DB00043106568A560002DA2BF216821F00401B1
:103DC00021600EB9002D4DD01546B6FBF3F103FB73
:103DD0001167C75D05F8017D3746BB420E46F4D931
:103DE000082B0BD12368DE0708D523696168994247
:103DF000DEBF302305F8013C05F1FF35521B22617F
:103E0000CDF800A04B4603AA21464046FFF7E2FE4C
:103E100001304CD14FF0FF3004B0BDE8F087354899
:103E200081F845702968236851F8046B29601D06E4
:103E300014D5DF0744BF43F0200323601EB9236875
:103E400023F0200323601023B0E7236843F020030E
:103E500023607823284884F84530E3E7590648BFB3
:103E6000B6B2E6E71546BBE72B6826686169181D00
:103E7000286035061B6801D5196002E07006FBD585
:103E80001980002323611546BAE72B681A1D2A60A2
:103E90001D68626800212846FCF732FB08B1401B10
:103EA000606063682361002384F84330A8E72369D6
:103EB0002A4649464046D0470130ABD023689B078D
:103EC00013D4E068039B9842B8BF1846A4E70123C7
:103ED000324649464046D04701309BD00135E36821
:103EE00003995B1AAB42F2DCEBE7002504F11906FB
:103EF000F5E700BFAB400008BC40000838B5064DF0
:103F00000023044608462B60FCF76AFE431C02D1DE
:103F10002B6803B1236038BD58600020884210B57B
:103F200001EB020402D98442234607D8431EA14272
:103F300008D011F8012B03F8012FF8E702440146DD
:103F40008A4200D110BD13F8014D02F8014DF7E788
:103F5000014800F02FB800BF64600020014800F065
:103F60002AB800BF64600020F8B5074614460E4624
:103F700021B9BDE8F8401146FFF776BC22B9FFF73A
:103F800027FC25462846F8BD00F016F8A0420FD2BF
:103F900021463846FFF768FC05460028F2D0314636
:103FA0002246FFF775FB31463846FFF711FCE9E77B
:103FB0003546E7E77047704751F8043C181F002B5F
:103FC000BCBF0B58C0187047F8B500BFF8BC08BCA0
:103FD0009E467047F8B500BFF8BC08BC9E467047C7
:103FE00054455354203D2025640054455354203DEE
:103FF0002025640A00636F756E74517565756500E0
:1040000064656275675461736B006C6364000000E3
:10401000F53F000800000000AC0000205000000048
:10402000990000201000000000400008000000007F
:1040300000030020880400000001002000020000AE
:104040001800000000000000000000000A40000806
:1040500000000000D009002088040000D0070020E4
:104060000002000018000000000000000000000036
:104070000000000000000000010203040607080918
:10408000000000000102030449444C4500546D72D5
:104090005100546D722053766300232D302B200085
:1040A000686C4C00656667454647003031323334F2
:1040B0003536373839414243444546003031323392
:1040C0003435363738396162636465660000000054
:0840D00040C1FF7F0100000068
:0440D800C501000816
:0440DC00A101000836
:1040E0000024F4000100000010000000AAAAAAAAFF
:1040F000140000200000000000000000000000008C
:1041000000000000000000000000000000000000AF
:10411000000000000000000000000000000000009F
:10412000000000000000000000000000000000008F
:10413000000000000000000000000000000000007F
:10414000000000000000000000000000000000006F
:04415000000000006B
:0400000508000C35AE
:00000001FF
